{
  "contractName": "MediaStore",
  "abi": [
    {
      "anonymous": false,
      "inputs": [
        {
          "indexed": false,
          "name": "_userAddr",
          "type": "address"
        }
      ],
      "name": "userRegisteredEvent",
      "type": "event"
    },
    {
      "constant": false,
      "inputs": [
        {
          "name": "_name",
          "type": "string"
        }
      ],
      "name": "registerUser",
      "outputs": [],
      "payable": false,
      "stateMutability": "nonpayable",
      "type": "function"
    },
    {
      "constant": true,
      "inputs": [
        {
          "name": "_user",
          "type": "address"
        }
      ],
      "name": "getUser",
      "outputs": [
        {
          "name": "",
          "type": "bool"
        }
      ],
      "payable": false,
      "stateMutability": "view",
      "type": "function"
    },
    {
      "constant": false,
      "inputs": [
        {
          "name": "mediaHash",
          "type": "string"
        },
        {
          "name": "_contentType",
          "type": "uint8"
        },
        {
          "name": "_price",
          "type": "uint256"
        }
      ],
      "name": "addContent",
      "outputs": [],
      "payable": false,
      "stateMutability": "nonpayable",
      "type": "function"
    },
    {
      "constant": false,
      "inputs": [
        {
          "name": "_contentHash",
          "type": "string"
        },
        {
          "name": "_price",
          "type": "uint256"
        }
      ],
      "name": "putContentForSale",
      "outputs": [],
      "payable": false,
      "stateMutability": "nonpayable",
      "type": "function"
    },
    {
      "constant": true,
      "inputs": [
        {
          "name": "_contentType",
          "type": "uint8"
        }
      ],
      "name": "getContentsOnSale",
      "outputs": [
        {
          "name": "commaSepContentIds",
          "type": "string"
        },
        {
          "name": "count",
          "type": "uint256"
        }
      ],
      "payable": false,
      "stateMutability": "view",
      "type": "function"
    },
    {
      "constant": true,
      "inputs": [
        {
          "name": "_contentHash",
          "type": "string"
        }
      ],
      "name": "getContentDetByHash",
      "outputs": [
        {
          "name": "creator",
          "type": "address"
        },
        {
          "name": "cntType",
          "type": "uint8"
        },
        {
          "name": "isSold",
          "type": "bool"
        },
        {
          "name": "resaleCnt",
          "type": "uint8"
        },
        {
          "name": "price",
          "type": "uint256"
        },
        {
          "name": "forSale",
          "type": "bool"
        },
        {
          "name": "currentOwner",
          "type": "address"
        }
      ],
      "payable": false,
      "stateMutability": "view",
      "type": "function"
    },
    {
      "constant": false,
      "inputs": [
        {
          "name": "_contentHash",
          "type": "string"
        }
      ],
      "name": "buyContent",
      "outputs": [],
      "payable": true,
      "stateMutability": "payable",
      "type": "function"
    },
    {
      "constant": true,
      "inputs": [],
      "name": "getUserUploadedContents",
      "outputs": [
        {
          "name": "contentCount",
          "type": "uint256"
        },
        {
          "name": "commaSepContentIds",
          "type": "string"
        }
      ],
      "payable": false,
      "stateMutability": "view",
      "type": "function"
    },
    {
      "constant": true,
      "inputs": [],
      "name": "getUserBoughtContents",
      "outputs": [
        {
          "name": "contentCount",
          "type": "uint256"
        },
        {
          "name": "commaSepContentIds",
          "type": "string"
        }
      ],
      "payable": false,
      "stateMutability": "view",
      "type": "function"
    },
    {
      "constant": true,
      "inputs": [
        {
          "name": "_contentHash",
          "type": "string"
        }
      ],
      "name": "trackOwnerShipsByHash",
      "outputs": [
        {
          "name": "commaSepAddress",
          "type": "string"
        },
        {
          "name": "addressCnt",
          "type": "uint256"
        }
      ],
      "payable": false,
      "stateMutability": "view",
      "type": "function"
    },
    {
      "constant": false,
      "inputs": [
        {
          "name": "x",
          "type": "address"
        }
      ],
      "name": "convertAddressToString",
      "outputs": [
        {
          "name": "",
          "type": "string"
        }
      ],
      "payable": false,
      "stateMutability": "nonpayable",
      "type": "function"
    },
    {
      "constant": false,
      "inputs": [
        {
          "name": "b",
          "type": "bytes1"
        }
      ],
      "name": "char",
      "outputs": [
        {
          "name": "c",
          "type": "bytes1"
        }
      ],
      "payable": false,
      "stateMutability": "nonpayable",
      "type": "function"
    }
  ],
  "bytecode": "0x608060405234801561001057600080fd5b50613740806100206000396000f3006080604052600436106100ba576000357c0100000000000000000000000000000000000000000000000000000000900463ffffffff16806318b1723e146100bf57806336aa152414610132578063597664a5146101c95780635ab59312146102255780635d0355a0146102e1578063681cd7b51461036157806369f9ad2f146103f85780636f77926b1461049f578063704f1b94146104fa57806394c0b80e14610563578063968fb36014610676578063e525e7051461075f575b600080fd5b3480156100cb57600080fd5b50610130600480360381019080803590602001908201803590602001908080601f01602080910402602001604051908101604052809392919081815260200183838082843782019150505050505091929192908035906020019092919050505061080f565b005b34801561013e57600080fd5b50610147610ae3565b6040518083815260200180602001828103825283818151815260200191508051906020019080838360005b8381101561018d578082015181840152602081019050610172565b50505050905090810190601f1680156101ba5780820380516001836020036101000a031916815260200191505b50935050505060405180910390f35b610223600480360381019080803590602001908201803590602001908080601f0160208091040260200160405190810160405280939291908181526020018383808284378201915050505050509192919290505050610d0e565b005b34801561023157600080fd5b50610266600480360381019080803573ffffffffffffffffffffffffffffffffffffffff1690602001909291905050506116ec565b6040518080602001828103825283818151815260200191508051906020019080838360005b838110156102a657808201518184015260208101905061028b565b50505050905090810190601f1680156102d35780820380516001836020036101000a031916815260200191505b509250505060405180910390f35b3480156102ed57600080fd5b5061035f600480360381019080803590602001908201803590602001908080601f0160208091040260200160405190810160405280939291908181526020018383808284378201915050505050509192919290803560ff16906020019092919080359060200190929190505050611901565b005b34801561036d57600080fd5b50610376611f90565b6040518083815260200180602001828103825283818151815260200191508051906020019080838360005b838110156103bc5780820151818401526020810190506103a1565b50505050905090810190601f1680156103e95780820380516001836020036101000a031916815260200191505b50935050505060405180910390f35b34801561040457600080fd5b5061044560048036038101908080357effffffffffffffffffffffffffffffffffffffffffffffffffffffffffffff191690602001909291905050506121bb565b60405180827effffffffffffffffffffffffffffffffffffffffffffffffffffffffffffff19167effffffffffffffffffffffffffffffffffffffffffffffffffffffffffffff1916815260200191505060405180910390f35b3480156104ab57600080fd5b506104e0600480360381019080803573ffffffffffffffffffffffffffffffffffffffff1690602001909291905050506122ab565b604051808215151515815260200191505060405180910390f35b34801561050657600080fd5b50610561600480360381019080803590602001908201803590602001908080601f0160208091040260200160405190810160405280939291908181526020018383808284378201915050505050509192919290505050612304565b005b34801561056f57600080fd5b506105ca600480360381019080803590602001908201803590602001908080601f0160208091040260200160405190810160405280939291908181526020018383808284378201915050505050509192919290505050612597565b604051808873ffffffffffffffffffffffffffffffffffffffff1673ffffffffffffffffffffffffffffffffffffffff1681526020018760ff1660ff168152602001861515151581526020018560ff1660ff168152602001848152602001831515151581526020018273ffffffffffffffffffffffffffffffffffffffff1673ffffffffffffffffffffffffffffffffffffffff16815260200197505050505050505060405180910390f35b34801561068257600080fd5b506106dd600480360381019080803590602001908201803590602001908080601f016020809104026020016040519081016040528093929190818152602001838380828437820191505050505050919291929050505061297e565b6040518080602001838152602001828103825284818151815260200191508051906020019080838360005b83811015610723578082015181840152602081019050610708565b50505050905090810190601f1680156107505780820380516001836020036101000a031916815260200191505b50935050505060405180910390f35b34801561076b57600080fd5b5061078d600480360381019080803560ff169060200190929190505050612c7e565b6040518080602001838152602001828103825284818151815260200191508051906020019080838360005b838110156107d35780820151818401526020810190506107b8565b50505050905090810190601f1680156108005780820380516001836020036101000a031916815260200191505b50935050505060405180910390f35b600e826040518082805190602001908083835b6020831015156108475780518252602082019150602081019050602083039250610822565b6001836020036101000a038019825116818451168082178552505050505050905001915050908152602001604051809103902060030160049054906101000a900460ff16151561089657600080fd5b600e826040518082805190602001908083835b6020831015156108ce57805182526020820191506020810190506020830392506108a9565b6001836020036101000a038019825116818451168082178552505050505050905001915050908152602001604051809103902060010160009054906101000a900473ffffffffffffffffffffffffffffffffffffffff1673ffffffffffffffffffffffffffffffffffffffff163373ffffffffffffffffffffffffffffffffffffffff1614151561095e57600080fd5b6001600e836040518082805190602001908083835b6020831015156109985780518252602082019150602081019050602083039250610973565b6001836020036101000a038019825116818451168082178552505050505050905001915050908152602001604051809103902060030160056101000a81548160ff02191690831515021790555080600e836040518082805190602001908083835b602083101515610a1e57805182526020820191506020810190506020830392506109f9565b6001836020036101000a0380198251168184511680821785525050505050509050019150509081526020016040518091039020600401819055506000600e836040518082805190602001908083835b602083101515610a925780518252602082019150602081019050602083039250610a6d565b6001836020036101000a038019825116818451168082178552505050505050905001915050908152602001604051809103902060030160066101000a81548160ff0219169083151502179055505050565b60006060600460003373ffffffffffffffffffffffffffffffffffffffff1673ffffffffffffffffffffffffffffffffffffffff16815260200190815260200160002060000160009054906101000a900460ff161515610b4257600080fd5b6000600460003373ffffffffffffffffffffffffffffffffffffffff1673ffffffffffffffffffffffffffffffffffffffff16815260200190815260200160002060020180549050111515610b9657600080fd5b600460003373ffffffffffffffffffffffffffffffffffffffff1673ffffffffffffffffffffffffffffffffffffffff168152602001908152602001600020600201805490509150610d08600460003373ffffffffffffffffffffffffffffffffffffffff1673ffffffffffffffffffffffffffffffffffffffff168152602001908152602001600020600201805480602002602001604051908101604052809291908181526020016000905b82821015610cff578382906000526020600020018054600181600116156101000203166002900480601f016020809104026020016040519081016040528092919081815260200182805460018160011615610100020316600290048015610ceb5780601f10610cc057610100808354040283529160200191610ceb565b820191906000526020600020905b815481529060010190602001808311610cce57829003601f168201915b505050505081526020019060010190610c43565b50505050613112565b90509091565b600460003373ffffffffffffffffffffffffffffffffffffffff1673ffffffffffffffffffffffffffffffffffffffff16815260200190815260200160002060000160009054906101000a900460ff161515610d6957600080fd5b600034111515610d7857600080fd5b80600e816040518082805190602001908083835b602083101515610db15780518252602082019150602081019050602083039250610d8c565b6001836020036101000a038019825116818451168082178552505050505050905001915050908152602001604051809103902060030160049054906101000a900460ff161515610e0057600080fd5b600e826040518082805190602001908083835b602083101515610e385780518252602082019150602081019050602083039250610e13565b6001836020036101000a038019825116818451168082178552505050505050905001915050908152602001604051809103902060056000820160009054906101000a900473ffffffffffffffffffffffffffffffffffffffff168160000160006101000a81548173ffffffffffffffffffffffffffffffffffffffff021916908373ffffffffffffffffffffffffffffffffffffffff1602179055506001820160009054906101000a900473ffffffffffffffffffffffffffffffffffffffff168160010160006101000a81548173ffffffffffffffffffffffffffffffffffffffff021916908373ffffffffffffffffffffffffffffffffffffffff16021790555060028201816002019080546001816001161561010002031660029004610f629291906133f0565b506003820160009054906101000a900463ffffffff168160030160006101000a81548163ffffffff021916908363ffffffff1602179055506003820160049054906101000a900460ff168160030160046101000a81548160ff0219169083151502179055506003820160059054906101000a900460ff168160030160056101000a81548160ff0219169083151502179055506003820160069054906101000a900460ff168160030160066101000a81548160ff0219169083151502179055506003820160079054906101000a900460ff168160030160076101000a81548160ff021916908360ff160217905550600482015481600401556005820160009054906101000a900460ff168160050160006101000a81548160ff0219169083600381111561108a57fe5b0217905550905050600560030160059054906101000a900460ff1680156110c15750600560030160069054906101000a900460ff16155b15156110cc57600080fd5b600560000160009054906101000a900473ffffffffffffffffffffffffffffffffffffffff1673ffffffffffffffffffffffffffffffffffffffff163373ffffffffffffffffffffffffffffffffffffffff161415151561112c57600080fd5b6060604051908101604052803373ffffffffffffffffffffffffffffffffffffffff16815260200142815260200134815250600b60008201518160000160006101000a81548173ffffffffffffffffffffffffffffffffffffffff021916908373ffffffffffffffffffffffffffffffffffffffff16021790555060208201518160010155604082015181600201559050506010826040518082805190602001908083835b6020831015156111f657805182526020820191506020810190506020830392506111d1565b6001836020036101000a0380198251168184511680821785525050505050509050019150509081526020016040518091039020600b908060018154018082558091505090600182039060005260206000209060030201600090919290919091506000820160009054906101000a900473ffffffffffffffffffffffffffffffffffffffff168160000160006101000a81548173ffffffffffffffffffffffffffffffffffffffff021916908373ffffffffffffffffffffffffffffffffffffffff16021790555060018201548160010155600282015481600201555050506001600e836040518082805190602001908083835b60208310151561130e57805182526020820191506020810190506020830392506112e9565b6001836020036101000a038019825116818451168082178552505050505050905001915050908152602001604051809103902060030160066101000a81548160ff0219169083151502179055506000600e836040518082805190602001908083835b6020831015156113955780518252602082019150602081019050602083039250611370565b6001836020036101000a038019825116818451168082178552505050505050905001915050908152602001604051809103902060030160056101000a81548160ff0219169083151502179055506001600e836040518082805190602001908083835b60208310151561141c57805182526020820191506020810190506020830392506113f7565b6001836020036101000a038019825116818451168082178552505050505050905001915050908152602001604051809103902060030160079054906101000a900460ff1601600e836040518082805190602001908083835b6020831015156114995780518252602082019150602081019050602083039250611474565b6001836020036101000a038019825116818451168082178552505050505050905001915050908152602001604051809103902060030160076101000a81548160ff021916908360ff16021790555033600e836040518082805190602001908083835b60208310151561152057805182526020820191506020810190506020830392506114fb565b6001836020036101000a038019825116818451168082178552505050505050905001915050908152602001604051809103902060010160006101000a81548173ffffffffffffffffffffffffffffffffffffffff021916908373ffffffffffffffffffffffffffffffffffffffff160217905550600460003373ffffffffffffffffffffffffffffffffffffffff1673ffffffffffffffffffffffffffffffffffffffff168152602001908152602001600020600301829080600181540180825580915050906001820390600052602060002001600090919290919091509080519060200190611611929190613477565b5050600e826040518082805190602001908083835b60208310151561164b5780518252602082019150602081019050602083039250611626565b6001836020036101000a038019825116818451168082178552505050505050905001915050908152602001604051809103902060000160009054906101000a900473ffffffffffffffffffffffffffffffffffffffff1673ffffffffffffffffffffffffffffffffffffffff166108fc349081150290604051600060405180830381858888f193505050501580156116e7573d6000803e3d6000fd5b505050565b60608060008060008060286040519080825280601f01601f1916602001820160405280156117295781602001602082028038833980820191505090505b509450600093505b60148410156118f4578360130360080260020a8773ffffffffffffffffffffffffffffffffffffffff1681151561176457fe5b047f01000000000000000000000000000000000000000000000000000000000000000292506010837f0100000000000000000000000000000000000000000000000000000000000000900460ff168115156117bb57fe5b047f0100000000000000000000000000000000000000000000000000000000000000029150817f01000000000000000000000000000000000000000000000000000000000000009004601002837f01000000000000000000000000000000000000000000000000000000000000009004037f0100000000000000000000000000000000000000000000000000000000000000029050611859826121bb565b858560020281518110151561186a57fe5b9060200101907effffffffffffffffffffffffffffffffffffffffffffffffffffffffffffff1916908160001a9053506118a3816121bb565b85600186600202018151811015156118b757fe5b9060200101907effffffffffffffffffffffffffffffffffffffffffffffffffffffffffffff1916908160001a9053508380600101945050611731565b8495505050505050919050565b600460003373ffffffffffffffffffffffffffffffffffffffff1673ffffffffffffffffffffffffffffffffffffffff16815260200190815260200160002060000160009054906101000a900460ff16151561195c57600080fd5b60038260ff161115151561196f57600080fd5b600e836040518082805190602001908083835b6020831015156119a75780518252602082019150602081019050602083039250611982565b6001836020036101000a038019825116818451168082178552505050505050905001915050908152602001604051809103902060030160049054906101000a900460ff161515156119f757600080fd5b610140604051908101604052803373ffffffffffffffffffffffffffffffffffffffff1681526020013373ffffffffffffffffffffffffffffffffffffffff168152602001848152602001600063ffffffff168152602001600115158152602001600015158152602001600015158152602001600060ff1681526020018281526020018360ff166003811115611a8957fe5b6003811115611a9457fe5b815250600560008201518160000160006101000a81548173ffffffffffffffffffffffffffffffffffffffff021916908373ffffffffffffffffffffffffffffffffffffffff16021790555060208201518160010160006101000a81548173ffffffffffffffffffffffffffffffffffffffff021916908373ffffffffffffffffffffffffffffffffffffffff1602179055506040820151816002019080519060200190611b439291906134f7565b5060608201518160030160006101000a81548163ffffffff021916908363ffffffff16021790555060808201518160030160046101000a81548160ff02191690831515021790555060a08201518160030160056101000a81548160ff02191690831515021790555060c08201518160030160066101000a81548160ff02191690831515021790555060e08201518160030160076101000a81548160ff021916908360ff16021790555061010082015181600401556101208201518160050160006101000a81548160ff02191690836003811115611c1c57fe5b02179055509050506005600e846040518082805190602001908083835b602083101515611c5e5780518252602082019150602081019050602083039250611c39565b6001836020036101000a03801982511681845116808217855250505050505090500191505090815260200160405180910390206000820160009054906101000a900473ffffffffffffffffffffffffffffffffffffffff168160000160006101000a81548173ffffffffffffffffffffffffffffffffffffffff021916908373ffffffffffffffffffffffffffffffffffffffff1602179055506001820160009054906101000a900473ffffffffffffffffffffffffffffffffffffffff168160010160006101000a81548173ffffffffffffffffffffffffffffffffffffffff021916908373ffffffffffffffffffffffffffffffffffffffff16021790555060028201816002019080546001816001161561010002031660029004611d869291906133f0565b506003820160009054906101000a900463ffffffff168160030160006101000a81548163ffffffff021916908363ffffffff1602179055506003820160049054906101000a900460ff168160030160046101000a81548160ff0219169083151502179055506003820160059054906101000a900460ff168160030160056101000a81548160ff0219169083151502179055506003820160069054906101000a900460ff168160030160066101000a81548160ff0219169083151502179055506003820160079054906101000a900460ff168160030160076101000a81548160ff021916908360ff160217905550600482015481600401556005820160009054906101000a900460ff168160050160006101000a81548160ff02191690836003811115611eae57fe5b0217905550905050600f60008360ff1660ff168152602001908152602001600020839080600181540180825580915050906001820390600052602060002001600090919290919091509080519060200190611f0a929190613477565b5050600460003373ffffffffffffffffffffffffffffffffffffffff1673ffffffffffffffffffffffffffffffffffffffff168152602001908152602001600020600201839080600181540180825580915050906001820390600052602060002001600090919290919091509080519060200190611f89929190613477565b5050505050565b60006060600460003373ffffffffffffffffffffffffffffffffffffffff1673ffffffffffffffffffffffffffffffffffffffff16815260200190815260200160002060000160009054906101000a900460ff161515611fef57600080fd5b6000600460003373ffffffffffffffffffffffffffffffffffffffff1673ffffffffffffffffffffffffffffffffffffffff1681526020019081526020016000206003018054905011151561204357600080fd5b600460003373ffffffffffffffffffffffffffffffffffffffff1673ffffffffffffffffffffffffffffffffffffffff1681526020019081526020016000206003018054905091506121b5600460003373ffffffffffffffffffffffffffffffffffffffff1673ffffffffffffffffffffffffffffffffffffffff168152602001908152602001600020600301805480602002602001604051908101604052809291908181526020016000905b828210156121ac578382906000526020600020018054600181600116156101000203166002900480601f0160208091040260200160405190810160405280929190818152602001828054600181600116156101000203166002900480156121985780601f1061216d57610100808354040283529160200191612198565b820191906000526020600020905b81548152906001019060200180831161217b57829003601f168201915b5050505050815260200190600101906120f0565b50505050613112565b90509091565b6000600a7f010000000000000000000000000000000000000000000000000000000000000002827effffffffffffffffffffffffffffffffffffffffffffffffffffffffffffff1916101561225a576030827f01000000000000000000000000000000000000000000000000000000000000009004017f01000000000000000000000000000000000000000000000000000000000000000290506122a6565b6057827f01000000000000000000000000000000000000000000000000000000000000009004017f01000000000000000000000000000000000000000000000000000000000000000290505b919050565b6000600460008373ffffffffffffffffffffffffffffffffffffffff1673ffffffffffffffffffffffffffffffffffffffff16815260200190815260200160002060000160009054906101000a900460ff169050919050565b600460003373ffffffffffffffffffffffffffffffffffffffff1673ffffffffffffffffffffffffffffffffffffffff16815260200190815260200160002060000160009054906101000a900460ff1615151561236057600080fd5b60806040519081016040528060011515815260200182815260200160006040519080825280602002602001820160405280156123b057816020015b606081526020019060019003908161239b5790505b50815260200160006040519080825280602002602001820160405280156123eb57816020015b60608152602001906001900390816123d65790505b508152506000808201518160000160006101000a81548160ff021916908315150217905550602082015181600101908051906020019061242c9291906134f7565b506040820151816002019080519060200190612449929190613577565b506060820151816003019080519060200190612466929190613577565b509050506000600460003373ffffffffffffffffffffffffffffffffffffffff1673ffffffffffffffffffffffffffffffffffffffff1681526020019081526020016000206000820160009054906101000a900460ff168160000160006101000a81548160ff021916908315150217905550600182018160010190805460018160011615610100020316600290046124ff9291906133f0565b5060028201816002019080546125169291906135d7565b50600382018160030190805461252d9291906135d7565b509050507f69172f0be15429cb2e6a56e9da2d5a2db1efeae3fc2cccbda801e8650810c3cc33604051808273ffffffffffffffffffffffffffffffffffffffff1673ffffffffffffffffffffffffffffffffffffffff16815260200191505060405180910390a150565b600080600080600080600087600e816040518082805190602001908083835b6020831015156125db57805182526020820191506020810190506020830392506125b6565b6001836020036101000a038019825116818451168082178552505050505050905001915050908152602001604051809103902060030160049054906101000a900460ff16151561262a57600080fd5b600e896040518082805190602001908083835b602083101515612662578051825260208201915060208101905060208303925061263d565b6001836020036101000a038019825116818451168082178552505050505050905001915050908152602001604051809103902060056000820160009054906101000a900473ffffffffffffffffffffffffffffffffffffffff168160000160006101000a81548173ffffffffffffffffffffffffffffffffffffffff021916908373ffffffffffffffffffffffffffffffffffffffff1602179055506001820160009054906101000a900473ffffffffffffffffffffffffffffffffffffffff168160010160006101000a81548173ffffffffffffffffffffffffffffffffffffffff021916908373ffffffffffffffffffffffffffffffffffffffff1602179055506002820181600201908054600181600116156101000203166002900461278c9291906133f0565b506003820160009054906101000a900463ffffffff168160030160006101000a81548163ffffffff021916908363ffffffff1602179055506003820160049054906101000a900460ff168160030160046101000a81548160ff0219169083151502179055506003820160059054906101000a900460ff168160030160056101000a81548160ff0219169083151502179055506003820160069054906101000a900460ff168160030160066101000a81548160ff0219169083151502179055506003820160079054906101000a900460ff168160030160076101000a81548160ff021916908360ff160217905550600482015481600401556005820160009054906101000a900460ff168160050160006101000a81548160ff021916908360038111156128b457fe5b0217905550905050600560000160009054906101000a900473ffffffffffffffffffffffffffffffffffffffff1697506005800160009054906101000a900460ff16600381111561290157fe5b9650600560030160069054906101000a900460ff169550600560030160079054906101000a900460ff1694506005600401549350600560030160059054906101000a900460ff169250600560010160009054906101000a900473ffffffffffffffffffffffffffffffffffffffff16915050919395979092949650565b6060600080600084600e816040518082805190602001908083835b6020831015156129be5780518252602082019150602081019050602083039250612999565b6001836020036101000a038019825116818451168082178552505050505050905001915050908152602001604051809103902060030160049054906101000a900460ff161515612a0d57600080fd5b600091505b6010866040518082805190602001908083835b602083101515612a4a5780518252602082019150602081019050602083039250612a25565b6001836020036101000a038019825116818451168082178552505050505050905001915050908152602001604051809103902080549050821015612b845782612b3b6010886040518082805190602001908083835b602083101515612ac45780518252602082019150602081019050602083039250612a9f565b6001836020036101000a038019825116818451168082178552505050505050905001915050908152602001604051809103902084815481101515612b0457fe5b906000526020600020906003020160000160009054906101000a900473ffffffffffffffffffffffffffffffffffffffff166116ec565b9080600181540180825580915050906001820390600052602060002001600090919290919091509080519060200190612b75929190613477565b50508180600101925050612a12565b612c6d83805480602002602001604051908101604052809291908181526020016000905b82821015612c64578382906000526020600020018054600181600116156101000203166002900480601f016020809104026020016040519081016040528092919081815260200182805460018160011615610100020316600290048015612c505780601f10612c2557610100808354040283529160200191612c50565b820191906000526020600020905b815481529060010190602001808311612c3357829003601f168201915b505050505081526020019060010190612ba8565b50505050613112565b945082805490509350505050915091565b606060008060006060600091505b600f60008760ff1660ff16815260200190815260200160002080549050821015612f5157600f60008760ff1660ff16815260200190815260200160002082815481101515612cd657fe5b906000526020600020018054600181600116156101000203166002900480601f016020809104026020016040519081016040528092919081815260200182805460018160011615610100020316600290048015612d745780601f10612d4957610100808354040283529160200191612d74565b820191906000526020600020905b815481529060010190602001808311612d5757829003601f168201915b50505050509050600e816040518082805190602001908083835b602083101515612db35780518252602082019150602081019050602083039250612d8e565b6001836020036101000a038019825116818451168082178552505050505050905001915050908152602001604051809103902060030160049054906101000a900460ff168015612e7b5750600e816040518082805190602001908083835b602083101515612e365780518252602082019150602081019050602083039250612e11565b6001836020036101000a038019825116818451168082178552505050505050905001915050908152602001604051809103902060030160059054906101000a900460ff165b8015612f005750600e816040518082805190602001908083835b602083101515612eba5780518252602082019150602081019050602083039250612e95565b6001836020036101000a038019825116818451168082178552505050505050905001915050908152602001604051809103902060030160069054906101000a900460ff16155b15612f445782819080600181540180825580915050906001820390600052602060002001600090919290919091509080519060200190612f41929190613477565b50505b8180600101925050612c8c565b60018380549050111561304e5761304783805480602002602001604051908101604052809291908181526020016000905b8282101561303e578382906000526020600020018054600181600116156101000203166002900480601f01602080910402602001604051908101604052809291908181526020018280546001816001161561010002031660029004801561302a5780601f10612fff5761010080835404028352916020019161302a565b820191906000526020600020905b81548152906001019060200180831161300d57829003601f168201915b505050505081526020019060010190612f82565b50505050613112565b9450613103565b82600081548110151561305d57fe5b906000526020600020018054600181600116156101000203166002900480601f0160208091040260200160405190810160405280929190818152602001828054600181600116156101000203166002900480156130fb5780601f106130d0576101008083540402835291602001916130fb565b820191906000526020600020905b8154815290600101906020018083116130de57829003601f168201915b505050505094505b82805490509350505050915091565b6060806000835160405190808252806020026020018201604052801561315257816020015b61313f613647565b8152602001906001900390816131375790505b509150600090505b83518163ffffffff1610156131bd5761318f848263ffffffff1681518110151561318057fe5b90602001906020020151613216565b828263ffffffff168151811015156131a357fe5b90602001906020020181905250808060010191505061315a565b61320d826131ff6040805190810160405280600181526020017f7c00000000000000000000000000000000000000000000000000000000000000815250613216565b61324490919063ffffffff16565b92505050919050565b61321e613661565b600060208301905060408051908101604052808451815260200182815250915050919050565b606060008060606000808651141561326e576020604051908101604052806000815250945061339b565b60018651038760000151029350600092505b85518310156132b657858381518110151561329757fe5b9060200190602002015160000151840193508280600101935050613280565b836040519080825280601f01601f1916602001820160405280156132e95781602001602082028038833980820191505090505b509150602082019050600092505b85518310156133975761334181878581518110151561331257fe5b9060200190602002015160200151888681518110151561332e57fe5b90602001906020020151600001516133a5565b858381518110151561334f57fe5b906020019060200201516000015181019050600186510383101561338a5761338081886020015189600001516133a5565b8660000151810190505b82806001019350506132f7565b8194505b5050505092915050565b60005b6020821015156133cd57825184526020840193506020830192506020820391506133a8565b6001826020036101000a0390508019835116818551168181178652505050505050565b828054600181600116156101000203166002900490600052602060002090601f016020900481019282601f106134295780548555613466565b8280016001018555821561346657600052602060002091601f016020900482015b8281111561346557825482559160010191906001019061344a565b5b509050613473919061367b565b5090565b828054600181600116156101000203166002900490600052602060002090601f016020900481019282601f106134b857805160ff19168380011785556134e6565b828001600101855582156134e6579182015b828111156134e55782518255916020019190600101906134ca565b5b5090506134f3919061367b565b5090565b828054600181600116156101000203166002900490600052602060002090601f016020900481019282601f1061353857805160ff1916838001178555613566565b82800160010185558215613566579182015b8281111561356557825182559160200191906001019061354a565b5b509050613573919061367b565b5090565b8280548282559060005260206000209081019282156135c6579160200282015b828111156135c55782518290805190602001906135b59291906134f7565b5091602001919060010190613597565b5b5090506135d391906136a0565b5090565b8280548282559060005260206000209081019282156136365760005260206000209182015b8281111561363557828290805460018160011615610100020316600290046136259291906133f0565b50916001019190600101906135fc565b5b50905061364391906136a0565b5090565b604080519081016040528060008152602001600081525090565b604080519081016040528060008152602001600081525090565b61369d91905b80821115613699576000816000905550600101613681565b5090565b90565b6136c991905b808211156136c557600081816136bc91906136cc565b506001016136a6565b5090565b90565b50805460018160011615610100020316600290046000825580601f106136f25750613711565b601f016020900490600052602060002090810190613710919061367b565b5b505600a165627a7a72305820fe0dd197a39ee994ff0e0ef7e814a484e633206275e73217d6688a908d01a9010029",
  "source": "pragma solidity  ^0.4.2;\n\nimport \"./MediaLib.sol\";\nimport \"./strings.sol\";\n\ncontract MediaStore {\n\n    using MediaLib for *;\n    using strings for *;\n    \n    \n    ///////////////////// USER ONBOARD MODULE //////////////////////////////////////\n    \n    MediaLib.User newUser;\n    \n    mapping (address => MediaLib.User) UserList;\n    event userRegisteredEvent(address _userAddr);\n    \n    //// USER MODIFIERS ////\n    \n    /// user should exist in the UserList\n    modifier ifuserExistsMod(){\n        require(UserList[msg.sender].exists);\n        _;\n    }\n    \n    \n    //// USER EVENTS ////\n    \n    \n    \n    //// APIS ////\n    \n    /// register a new user if he does not exisit\n    function registerUser(string _name) public{\n        \n        // dont register if he is already registered.\n        require(!UserList[msg.sender].exists);\n        \n        // create a user object\n        newUser = MediaLib.User({\n            exists : true,\n            name : _name,\n            myUploadedCntLst : new string [](0),\n            myBoughtCntLst : new string [](0)\n        });\n        \n        // add the newUser to the list\n        UserList[msg.sender] = newUser;\n        \n        // emit an event that user has successfully registered\n        emit userRegisteredEvent(msg.sender);\n    }\n    \n    \n    function getUser(address _user) public \n    view \n    returns(bool){\n        return UserList[_user].exists;\n    }\n    \n    \n    ///////////////////// CONTENT MODULE //////////////////////////////////////\n    \n    MediaLib.Media mediaObj;\n    MediaLib.Buy buyObj;\n    \n    /// list of media or content\n    /// key is contenthash and value is Content struct\n    mapping (string => MediaLib.Media) private MediaList;\n    \n    /// will store array of contentHashes which are available \n    /// key is content type (0,1,2,3) and value is array of contestHash\n    mapping (uint8 => string []) private TypeContents;\n    \n    /// information about buyers , time they bought, price they bought for\n    /// key is contenthash and value is Buy struct\n    mapping (string => MediaLib.Buy[]) private BuyingList;\n    \n    \n    /// CONTENT MODIFIERS ///\n    \n    // check if content exists in the mediaList\n    modifier ifcontentExistsMod(string contentHash){\n        require(MediaList[contentHash].exists);\n        _;\n    }\n    \n    modifier ifvalueExistsMod(){\n        require(msg.value > 0);\n        _;\n    }\n    \n    \n    /// CONTENT EVENTS ///\n    \n    \n    /// addContent content \n    /// mediaHash is not the actual hash of media but the excrypted text of ipfs hash\n    /// mediaHash is treated as unique id of media\n    /// tagString is nothing but the category of media or type of media\n    function addContent(string mediaHash,uint8 _contentType, uint256 _price) public \n    ifuserExistsMod{\n        \n        // media type other than ONFDOC(0), IMAGE(1), MUSIC(2), VID(3) is not allowed\n        require(_contentType <= 3);\n        \n        // media should not be already added\n        require(!MediaList[mediaHash].exists);\n\n        // Creating media object\n        mediaObj = MediaLib.Media({\n            creator : msg.sender,\n            claps : 0,\n            id: mediaHash,\n            cntType : MediaLib.ContentTypes(_contentType),\n            exists : true,\n            forSale : false,\n            isSold : false,\n            resaleCnt : 0,\n            price : _price,\n            currentOwner : msg.sender\n        });\n        \n        // storing new media into mapping\n        MediaList[mediaHash] = mediaObj;\n        \n        \n        // updating content according to its type \n        TypeContents[_contentType].push(mediaHash);\n        \n        // update the user in the userList\n        UserList[msg.sender].myUploadedCntLst.push(mediaHash);\n        \n    }\n    \n    // Put content for forSale\n    function putContentForSale(string _contentHash, uint256 _price) public {\n        //content should exist in the list\n        require(MediaList[_contentHash].exists);\n\n        // only current owner should be able to put the content on sale\n        require(msg.sender == MediaList[_contentHash].currentOwner);\n\n        MediaList[_contentHash].forSale = true;\n        MediaList[_contentHash].price = _price;\n        MediaList[_contentHash].isSold = false;\n    }\n    \n    \n    // fetch all contents which w.r.t type\n    function getContentsOnSale(uint8 _contentType) public\n    view\n    returns(string commaSepContentIds, uint256 count){\n        string[] storage contentsOnSale;\n        for(uint256 i = 0; i < TypeContents[_contentType].length; i++){\n            string memory hash = TypeContents[_contentType][i];\n            if(MediaList[hash].exists && MediaList[hash].forSale && !MediaList[hash].isSold){\n                contentsOnSale.push(hash);\n            }\n        }\n        if(contentsOnSale.length > 1){\n            commaSepContentIds = convertArrayToString(contentsOnSale);    \n        }else{\n            commaSepContentIds = contentsOnSale[0];\n        }\n        count = contentsOnSale.length;\n    }\n    \n    \n    /// fetch content details\n    function getContentDetByHash(string _contentHash) public \n    view\n    ifcontentExistsMod(_contentHash)\n    returns(address creator, uint8 cntType, bool isSold, uint8 resaleCnt, uint256 price,bool forSale, address currentOwner){\n        mediaObj = MediaList[_contentHash];\n        creator = mediaObj.creator;\n        cntType = uint8(mediaObj.cntType);\n        isSold = mediaObj.isSold;\n        resaleCnt = mediaObj.resaleCnt;\n        price = mediaObj.price;\n        forSale = mediaObj.forSale;\n        currentOwner = mediaObj.currentOwner;\n    }\n    \n    \n    /// buy contentsOnSale\n    /// keeping track of all buyers\n    function buyContent(string _contentHash) public\n    payable\n    ifuserExistsMod\n    ifvalueExistsMod\n    ifcontentExistsMod(_contentHash){\n        mediaObj = MediaList[_contentHash];\n        \n        // content should be forSale  \n        require(mediaObj.forSale && !mediaObj.isSold);\n        \n        // owner can not buy his own content\n        require(msg.sender != mediaObj.creator);\n        \n        buyObj = MediaLib.Buy({\n            buyer : msg.sender,\n            buyingTime : block.timestamp,\n            buyingPrice : msg.value\n        });\n        BuyingList[_contentHash].push(buyObj);\n        \n        // update the sold content\n        MediaList[_contentHash].isSold = true;\n        MediaList[_contentHash].forSale = false;\n        MediaList[_contentHash].resaleCnt = MediaList[_contentHash].resaleCnt + 1; \n        MediaList[_contentHash].currentOwner = msg.sender;\n\n        // update user object\n        UserList[msg.sender].myBoughtCntLst.push(_contentHash);\n\n        // transfer the cash to the creator\n        MediaList[_contentHash].creator.transfer(msg.value);\n    }\n    \n    \n    /// fetch user's uploaded-content list \n    /// It will fetch Ids, of all of the content the user have uploaded\n    function getUserUploadedContents() public \n    view  \n    ifuserExistsMod\n    returns(uint256 contentCount,string commaSepContentIds){\n        // user should have content in the uplaoded list\n        require(UserList[msg.sender].myUploadedCntLst.length > 0);\n        contentCount = UserList[msg.sender].myUploadedCntLst.length;\n        commaSepContentIds = convertArrayToString(UserList[msg.sender].myUploadedCntLst);\n    }\n    \n    \n    /// fetch user's bought-content list \n    /// It will fetch Ids, of all of the content the user have bought\n    function getUserBoughtContents() public \n    view  \n    ifuserExistsMod\n    returns(uint256 contentCount,string commaSepContentIds){\n        // user should have content in the uplaoded list\n        require(UserList[msg.sender].myBoughtCntLst.length > 0);\n        contentCount = UserList[msg.sender].myBoughtCntLst.length;\n        commaSepContentIds = convertArrayToString(UserList[msg.sender].myBoughtCntLst);\n    }\n\n    function trackOwnerShipsByHash(string _contentHash)public \n    view\n    ifcontentExistsMod(_contentHash)\n    returns(string commaSepAddress, uint256 addressCnt){\n        string[] storage buyerAddressesList;\n        // string [] storage buyingTimeList;\n        // string [] storage buyingPriceList;\n\n        for (uint256 i = 0; i < BuyingList[_contentHash].length ; i++){\n            buyerAddressesList.push(convertAddressToString(BuyingList[_contentHash][i].buyer));\n        }\n        commaSepAddress = convertArrayToString(buyerAddressesList);\n        addressCnt = buyerAddressesList.length;\n    }\n\n    \n    ///////////////////// COMMON MODULE //////////////////////////////////////\n\n    /// helper method to convert all values of an array in pipe separated\n    function convertArrayToString(string [] arr) internal \n    pure \n    returns(string arrConvertedToStr){\n        var parts = new strings.slice[](arr.length);\n        for (uint32 i = 0; i < arr.length; i++) {\n            parts[i] = arr[i].toSlice();\n        }\n        arrConvertedToStr = \"|\".toSlice().join(parts);   \n    }\n    \n    \n    function convertAddressToString(address x) returns (string) {\n        bytes memory s = new bytes(40);\n        for (uint i = 0; i < 20; i++) {\n            byte b = byte(uint8(uint(x) / (2**(8*(19 - i)))));\n            byte hi = byte(uint8(b) / 16);\n            byte lo = byte(uint8(b) - 16 * uint8(hi));\n            s[2*i] = char(hi);\n            s[2*i+1] = char(lo);            \n        }\n        return string(s);\n    }\n\n    function char(byte b) returns (byte c) {\n        if (b < 10) return byte(uint8(b) + 0x30);\n        else return byte(uint8(b) + 0x57);\n    }\n}\n",
  "sourcePath": "/home/vishwasb/vab/hypermine/adhat-contracts/contracts/MediaSore.sol",
  "compiler": {
    "name": "solc",
    "version": "0.4.24+commit.e67f0147.Emscripten.clang"
  },
  "schemaVersion": "2.0.0",
  "updatedAt": "2018-08-25T05:40:04.320Z"
}